{
  "contractName": "TodoList",
  "abi": [
    {
      "constant": true,
      "inputs": [],
      "name": "taskCount",
      "outputs": [
        {
          "internalType": "uint256",
          "name": "",
          "type": "uint256"
        }
      ],
      "payable": false,
      "stateMutability": "view",
      "type": "function"
    }
  ],
  "bytecode": "0x608060405260008055348015601357600080fd5b506084806100226000396000f3fe6080604052348015600f57600080fd5b506004361060285760003560e01c8063b6cb58a514602d575b600080fd5b60336049565b6040518082815260200191505060405180910390f35b6000548156fea265627a7a723158200ffd8cd486533406092795238f90521c311a7679257f4e6159689c502c9f747264736f6c63430005110032",
  "source": "// SPDX-License-Identifier: MIT\r\npragma solidity ^0.5.0;\r\ncontract TodoList{\r\n    uint public taskCount = 0;\r\n}",
  "sourcePath": "D:\\dapp\\eth-todo-list\\contracts\\TodoList.sol",
  "compiler": {
    "name": "solc",
    "version": "0.5.17+commit.d19bba13.Emscripten.clang"
  },
  "schemaVersion": "3.4.6",
  "updatedAt": "2022-04-11T08:19:13.694Z",
  "networkType": "ethereum",
  "devdoc": {
    "methods": {}
  },
  "userdoc": {
    "methods": {}
  }
}